:02000000F328E3
:0C000600831203139501171297120800D3
:0E0012008312031321088A00200882000800D0
:1000200083120313FB01FA01F9018030F800F10C8F
:10003000F00C031C24287408F90775080318750FC1
:10004000FA070318FB0A0310F01F2C287408FA079C
:1000500075080318750FFB07FB0CFA0CF90CF80C6C
:10006000031C17287B08F3007A08F2007908F100D6
:060070007808F000080012
:0C007600831203139B011D129D12080051
:10008200831603131208013EF000F1010318F10A6E
:1000920083122408F400F50110200630F2007008E3
:1000A200F4007108F500720803195C28F50CF40CD1
:1000B200F513FF3E55280430F1007408F000710872
:1000C20003196728F00D7010FF3E6128303070056B
:1000D200F3007408F0007508F100F10CF00CF11354
:1000E200F10CF00CF11370089B000F309D057308A2
:0400F2009D04080061
:1000F600831603131208013EF000F1010318F10AFA
:1001060083122408F400F50110200630F20070086E
:10011600F4007108F500720803199628F50CF40C22
:10012600F513FF3E8F280430F1007408F0007108C3
:100136000319A128F00D7010FF3E9B283030700582
:10014600F3007408F0007508F100F10CF00CF113DF
:10015600F10CF00CF113700895000F309705730839
:0401660097040800F2
:10016A00831603130711831212150C309704080023
:10017A0009208A110A128000840AA00A0319A10A16
:08018A00F003031DBD2808006D
:10019200831603138710831212150C309D04080076
:1001A2008316031788018901831287138813FF308E
:1001B20003138500FF308316850083128601FF300A
:1001C200880087018316870183121214921063300C
:1001D2008316920003201214921063308316920049
:0401E2003B200800B6
:1001E600D1201030A2001030A300B520C92022086B
:1001F600A4007B202308A40041202208A4007B2021
:100206002308A4004120FF302202031C1329FF30DB
:100216002302031C13291030A2001030A300152955
:10022600A20AA30A6830FC00E430FD00FD0B192980
:10023600FC0B19290000881D23290614861027297E
:0C024600081D272906108614002928290D
:04400E00F22F000786
:00000001FF
