:02000000652871
:0E000600831203132D088A002C0882000800C4
:1000140003208A110A128000840AAC0A0319AD0A6B
:08002400F003031D0A28080087
:10002C0083120313081088102E08031941282A087C
:10003C00203E84000008870088140D30FC00FB3043
:10004C00FD00FD0B2728FC0B272800000000881062
:10005C002B08203E84000008870008140D30FC009B
:10006C00FB30FD00FD0B3828FC0B3828000000008D
:08007C000810AE031A28080069
:1000840083120313AA0A2A080A3A031D5128AA0153
:10009400AB0A2B080A3A031D5128AA01AB01080038
:1000A400831203132A08003A031D63280A30AA00A6
:1000B4002B08003A031D62280A30AB000A30AA005C
:0600C400AB03AA030800D3
:1000CA00773083120313A0004130A1003B30A20015
:1000DA006B30A3004D30A4006E30A5007E30A60020
:1000EA004330A7007F30A8006F30A900AA01AB01F6
:1000FA0083168701FC3088007F3081050317890148
:10010A003F30831203138600061C9D28061D94287F
:10011A002B08093A031D92289328AB0A9C28861DAE
:10012A009C282B08003A031D9B289C28AB03B62861
:10013A00861CB128061DA8282A08093A031DA628E4
:10014A00A728AA0AB028861DB0282A08003A031D43
:10015A00AF28B028AA03B628061EB5284220B6281A
:0C016A0052201930AE0016208928BA2857
:04400E00F42F000784
:00000001FF
