:02000000A42832
:0E0006008312031337088A00360882000800B0
:1000140003208A110A128000840AB60A0319B70A57
:08002400F003031D0A28080087
:10002C00831203130810881008118811380803195B
:10003C00652823082C3E840000088700081508302A
:10004C00FC00C930FD00FD0B2928FC0B2928000001
:10005C000000081120082C3E8400000887000814BA
:10006C000830FC00C930FD00FD0B3A28FC0B3A2887
:10007C0000000000081021082C3E840000088700B6
:10008C0088150830FC00C930FD00FD0B4B28FC0B1B
:10009C004B2800000000881122082C3E8400000828
:1000AC00870088140830FC00C930FD00FD0B5C286B
:1000BC00FC0B5C28000000008810B8031C2808000A
:1000CC00831203132308003A031D8C280930A30064
:1000DC002008003A031D8A280630A000A30121083D
:1000EC00003A031D88280930A1002208003A031D9C
:1000FC008628A3010630A000A1010630A2008728A3
:10010C00A2038928A1038B28A0038D28A30323080D
:10011C00003A031DA3282108003A031DA328220836
:10012C00003A031DA3282008003A031DA328013020
:0C013C00A4000030A500AA01AB010800DF
:1001480083120313A001A101A201A301A401A50127
:10015800A601A701A801A901AA01AB017730AC004B
:100168004130AD003B30AE006B30AF004D30B000D9
:100178006E30B1007E30B2004330B3007F30B4003F
:100188006F30B500FD30831685008701F030880098
:100198007F308105031789013F30831203138600DE
:1001A8008501061DE0280130A6000030A7000130B7
:1001B800AA000030AB00E528A601A701A401A5010B
:1001C8008510861DF1282808063A031DED28A80188
:1001D800EE28A80A2808A2003529061EFD282908A5
:1001E800063A031DF928A901FA28A90A2908A00036
:1001F8003529861C0929A201A101A001A301A60194
:10020800A701A401A5018510352906183529003054
:100218002506031D112901302406031D2429003059
:100228002706031D192900302606031D1E29A401CF
:10023800A50123298514AA01AB01A601A701352927
:1002480000302506031D2A2900302406031D352900
:1002580000302B06031D322901302A06031D3529DB
:10026800662000302506031D3B29013024060319AA
:0C02780040291930B8001620D528412973
:04400E00F42F000784
:00000001FF
