:020000001628C0
:0E0006008312031331088A00300882000800BC
:1000140003208A110A128000840AB00A0319B10A63
:08002400F003031D0A28080087
:10002C00013083120313A0000330A1000730A2009B
:10003C000F30A3001F30A4003F30A5007F30A60076
:10004C00FF30A7000130A8000230A9000430AA003C
:10005C000830AB001030AC002030AD004030AE00AA
:10006C008030AF00831687018601850183128701DA
:10007C00850186018801B201B301B401B5013508CF
:10008C00143A03198D2808303502031860283308F8
:10009C00283E8400000886000330FB000830FC007A
:1000AC007730FD00FD0B5828FC0B5828FB0B58280B
:1000BC00B30A8B28103035020318782886013208D1
:1000CC00283E8400000885000330FB000830FC004B
:1000DC007730FD00FD0B7028FC0B7028FB0B702893
:1000EC00B20A8B2885013408283E8400000887005A
:1000FC000330FB000830FC007730FD00FD0B84283A
:10010C00FC0B8428FB0B8428B40AB50A452887010C
:10011C00B201B301B401B5013508143A0319DB2857
:10012C00083035020318AE283308203E840000083E
:10013C0086000230FB000430FC00BA30FD00FD0BE1
:10014C00A528FC0BA528FB0BA5280000B30AD92871
:10015C00103035020318C6283208203E84000008EF
:10016C0085000230FB000430FC00BA30FD00FD0BB2
:10017C00BD28FC0BBD28FB0BBD280000B20AD928FA
:10018C003408203E8400000887000230FB00043055
:10019C00FC00BA30FD00FD0BD128FC0BD128FB0B69
:1001AC00D1280000B40AB50A92280730B2000730F3
:1001BC00B3000330B400B5013508143A03192D29E6
:1001CC00033035020318FE28B4033408203E8400A3
:1001DC00000887000230FB000430FC00BA30FD0040
:1001EC00FD0BF628FC0BF628FB0BF62800002B2940
:1001FC000B3035020318172987013208203E840082
:10020C0000088500B2030230FB000430FC00BA3059
:10021C00FD00FD0B0F29FC0B0F29FB0B0F29000018
:10022C002B2985013308203E840000088600B30387
:10023C000230FB000430FC00BA30FD00FD0B242919
:10024C00FC0B2429FB0B24290000B50AE2283C28CE
:02025C002E2949
:04400E00F42F000784
:00000001FF
