:020000003628A0
:100006008312031397131713971517158C101215D0
:060016008316071108002B
:10001C000330831203132405F2007208F000F00D74
:10002C007010F00D7010F00D7010F00D7010700855
:10003C0097042408F0002508F100F10CF00CF113E2
:10004C00711BF117F10CF00CF113711BF117700807
:04005C009500080003
:0C0060008312031324038316920008008F
:10006C00032000308312A4000130A500302083123D
:10007C00A201A3018030033AF00080302306700205
:10008C00031D4A282208E83C031C64282208A4000B
:10009C002308A5000E200630FB001330FC00AD3009
:1000AC00FD00FD0B5728FC0B5728FB0B57280000B5
:1000BC0000006430A2070318A30A40283D286528D5
:04400E00F22F000786
:00000001FF
